:020000040800F2
:1000000008150020610100081113000813130008EF
:10001000171300081B1300081F130008000000003E
:100020000000000000000000000000002313000892
:1000300025130008000000007701000827130008BE
:100040007B0100087B0100087B0100087B010008A0
:100050007B0100087B0100087B0100087B01000890
:100060007B0100087B0100087B0100087B01000880
:100070007B0100087B0100087B0100087B01000870
:100080007B0100087B0100087B0100087B01000860
:100090007B0100087B0100087B0100087B01000850
:1000A0007B0100087B0100087B0100087B01000840
:1000B0007B0100087B0100087B0100087B01000830
:1000C0007B0100087B0100087B0100087B01000820
:1000D0007B0100087B0100087B0100087B01000810
:1000E0007B0100087B0100087B0100087B01000800
:1000F0007B0100087B0100087B0100087B010008F0
:100100007B0100087B0100087B0100087B010008DF
:100110007B0100087B0100087B0100087B010008CF
:100120007B0100087B0100087B0100087B010008BF
:100130007B0100087B0100087B0100087B010008AF
:100140007B0100087B010008DFF810D001F0EEF819
:1001500000480047EB120008AFF3008008150020AC
:100160000648804706480047FEE7FEE7FEE7FEE751
:10017000FEE7FEE7FEE7FEE7FEE7FEE7D302000844
:1001800049010008002040F2596172B600BFD94A07
:10019000126902F00202022A03D00A1EA1F1010133
:1001A000F5D1D54A106820F0007040F00070106062
:1001B000D04A106820F4C06040F48060106040F2C3
:1001C000596100BFCB4A126902F002021AB10A1E3D
:1001D000A1F10101F6D140F2596100BFC54A12698F
:1001E00002F00202022A03D00A1EA1F10101F5D198
:1001F00062B67047F0B50024002500270026BF48EE
:10020000006840F48030BD49086000BFBB4800680A
:10021000C0F340467F1C16B9B7F5005FF6D1B7486A
:100220000068C0F340461EB9B548B6490860F0BD45
:10023000FFF7A8FFB448006820F00300B249086047
:100240000846006840F001000860AC484068AB49CF
:1002500048600846406840F40050486008464068DE
:1002600040F4A060486008464068A8490840A34997
:1002700048600846006C20F00300086408464468A3
:1002800044F48034056C44F4003400BF44F460143A
:1002900044600564006840F08070086000BF9748C3
:1002A000006800F000700028F9D09448406820F001
:1002B0000300924948600846406840F003004860E7
:1002C00000BF8E48406800F00C000C28F9D100BF38
:1002D000ADE710B58E48006840F470008C490860A6
:1002E0008648406A40F004008449486208464068F5
:1002F00088490840814948600846006886490840A6
:100300007E4908600846006820F48020086008469E
:10031000406882490840794948604FF4E040C8622B
:10032000401008630020486308647D4888600846E0
:10033000C06940F08050C8616E48006800F4806079
:10034000B0F5806F0CD100BF6B48006820F00070E2
:10035000694908600846006840F00070086000BF06
:100360006948006840F080006749086008460068F6
:1003700020F0100008600846006800F4807020B18A
:100380000846006820F400700860FFF733FF4FF064
:1003900000605F498039086010BD70B50021002001
:1003A000002300240022554D6D6805F00C01534DCB
:1003B0006D6AC5F3021231B104290AD008290CD0A4
:1003C0000C294DD10DE0574D55F822504D4E35605A
:1003D0004CE0554D4B4E356048E0544D494E35602C
:1003E00044E0464D6D68524E05EA0600434D6D6887
:1003F00005F48033414D2D6C05F0020400F00065DA
:100400001DB9022505EB904004E04FF4F875C5EBEB
:100410009045681C73B9394D2D6C05F0010525B167
:10042000424D4543374E356012E03F4D4543354E12
:1004300035600DE0314D6D6805F4003525B1304D66
:100440004543304E356003E0384D45432D4E356011
:10045000022C04D12B4D2D686D082A4E356005E025
:10046000304D55F82250274E356000BF00BF234D58
:100470006D68C5F303152F4E715D224D2D68CD407B
:10048000204E356070BD002040F2596172B600BF49
:10049000184A126902F00202022A03D00A1EA1F1D0
:1004A0000101F5D1144A106820F0007000BF1060FF
:1004B000104A106820F4C06040F4C060106040F240
:1004C000596100BF0B4A126902F002021AB10A1EFA
:1004D000A1F10101F6D140F2596100BF054A12694C
:1004E00002F00202022A03D00A1EA1F10101F5D195
:1004F00062B67047007000402018004000100240B3
:1005000000093D000000002000200240FFFFC0F76E
:1005100088ED00E000C0FFF8FFFFF6FEFFFF0007D8
:100520000080BF04801300080024F40000127A0049
:1005300000003C08701300082DE9F0410446002536
:10054000002600274FF6FF78FE48844208D101219B
:10055000042000F023FE0021042000F01FFE25E00F
:10056000F948844208D10121082000F017FE00213B
:10057000082000F013FE19E0F448844208D101215C
:10058000102000F00BFE0021102000F007FE0DE00F
:10059000EF48844208D10121202000F0FFFD002116
:1005A000202000F0FBFD01E0BDE8F08169E00120C2
:1005B000A84000EA0806002E62D0E648A90850F8D4
:1005C0002170A807010F0F2088400740DD488442B2
:1005D00001D100200AE0DC48844201D1012005E07D
:1005E000DA48844201D1022000E00320A907090F64
:1005F0008840B84221D1D8480068B043D649086045
:10060000081D0068B043091D0860081D0068B0435C
:10061000091D0860081D0068B043091D0860A8078F
:10062000010F0F2000FA01F7CA48A90850F821006D
:10063000B843C849AA0841F8220020686A0003218B
:1006400091408843206005F0080038B1606A69076E
:10065000CA0E0F2191400843606206E0206A6907D4
:10066000CA0E0F2191400843206261680120A84012
:1006700081436160E0686A00032191408843E06043
:100680006D1C28FA05F0002891D100BF8CE710B549
:100690000121084600F082FD0021012000F07EFDCE
:1006A00010BDF0B5034600250020002400220026DE
:1006B000E3E00F884FF0010C0CFA02FC07EA0C068D
:1006C000002E6FD055008F68022F07D08F68122F31
:1006D00004D08F6817B18F68032F25D102F0080767
:1006E0008FB1586A57074FEAD76C0F2707FA0CF7F4
:1006F000B8434FEA427C4FEADC6CCF6807FA0CF74C
:100700003843586210E0186A57074FEAD76C0F2732
:1007100007FA0CF7B8434FEA427C4FEADC6CCF682B
:1007200007FA0CF7384318621C680F7A07F00F00BD
:100730000327AF40BC4300FA05F73C431C60DC686C
:100740000F7907F003000327AF40BC4300FA05F719
:100750003C43DC600F7A07F003076FB18F68032F0B
:100760000AD0DC6A8F7807F003000327AF40BC4350
:1007700000FA05F73C43DC62986801279740B843CC
:10078000CF7807F001079740384398600F79022F20
:1007900009D19F6A4FF0010C0CFA02FC47EA0C07E2
:1007A0009F620BE068E00F79012F07D19F694FF03E
:1007B000010C0CFA02FC47EA0C079F618F68012FBD
:1007C00008D08F68022F05D08F68112F02D08F6854
:1007D000122F09D1586801279740B8430F7AC7F301
:1007E00000179740384358608F6807F08057002FF4
:1007F00042D0594F386801279740B8438F6807F4B3
:100800008037B7F5803F02D1012797403843524FD8
:1008100038603F1D386801279740B8438F6807F458
:100820000037B7F5003F02D10127974038434A4FC0
:100830003F1D38603F1D386801279740B8438F68D7
:1008400007F48017B7F5801F02D10127974038437E
:10085000414F083738603F1D386801279740B8433B
:100860008F6807F40017B7F5001F02D101279740E2
:100870003843394F0C373860521C0F881741002F0E
:100880007FF417AFF0BD4FF6FF7101800021C170FA
:1008900081600F21C16000210171817070470246A3
:1008A000002013690B400BB1012000E000207047CD
:1008B0000146086980B270470246002053690B4028
:1008C0000BB1012000E0002070470146486980B26A
:1008D00070478161704781617047816270470AB1DA
:1008E000816100E081627047416170474FF480325E
:1008F0000A43C261C161C261C269C2697047F0B591
:1009000003461546002200200BB90E4E08E0012BCD
:1009100001D10D4E04E0022B01D10C4E00E00C4E33
:10092000344601F00806CEB101F00702606A970074
:100930000F26BE40B043960005FA06F630436062CB
:1009400018E0000000080140000C014000100140C8
:1009500000140140040001400004014001F00702BE
:10096000206A97000F26BE40B043960005FA06F6AF
:1009700030432062F0BD70B50246002000240AB961
:100980003E4D08E0012A01D13D4D04E0022A01D18B
:100990003C4D00E03C4D2B4601F0080555B101F0FF
:1009A0000704586AA6000F25B540A84340F003008D
:1009B000586209E001F00704186AA6000F25B54047
:1009C000A84340F00300186270BD3049C861704709
:1009D00030B502462E4B8C1053F824308C07250F6F
:1009E0000324AC40A3432A4C8D1044F82530234601
:1009F0008C1053F824308C07240F02FA04F41C43A3
:100A0000234B8D1043F8254030BD0A460021204B72
:100A10001B1F196801238340994302FA00F319430D
:100A20001B4B1B1F1960704702460020092A11D179
:100A3000174B1B1F186820F40070112902D140F4D5
:100A4000007003E020F0F00040EA0110104B1B1F83
:100A5000186011E0082A0FD10D4B1B1F186820F4F5
:100A60008070102902D140F4807002E020F00F0065
:100A70000843074B1B1F1860704700000008014027
:100A8000000C014000100140001401400000204211
:100A900004000140F848406A40F00400F64948620A
:100AA00008464068F5490840F34948600846006830
:100AB000F3490840F04908600846006820F48020A7
:100AC000086008464068EF490840EB4948604FF429
:100AD000E040C86240100863002048630864EA48A8
:100AE00088607047E449096821F48031E24A116066
:100AF0001146096821F480211160B0F5803F03D0D0
:100B0000B0F5802F0ED106E0DB49096841F4803151
:100B1000D94A116007E0D849096841F4A021D64AB2
:100B2000116000E000BF00BF704710B50146002211
:100B3000002300204A11012A02D1CF4C236806E08D
:100B4000022A02D1CC4C236A01E0CB4C636A01F04B
:100B50001F02012494401C400CB1012000E0002041
:100B600010BD38B5002000900024002500BF3120C2
:100B7000FFF7DBFF05460098401C00900098B0F599
:100B8000005F01D0002DF2D03120FFF7CEFF08B179
:100B9000012400E00024204638BDB749096821F04F
:100BA0000101B54A1160012805D11146096841F0DB
:100BB0000101116000E000BF00BF704738B50020A0
:100BC00000900024002500BF2120FFF7AEFF05465E
:100BD0000098401C00900098B0F5A06F01D0002D47
:100BE000F2D02120FFF7A1FF08B1012400E000248A
:100BF000204638BD014600209F4A106820F07C0046
:100C000040EA810010607047A049086070479A4A26
:100C1000526A22F07002984B5A621A46526A0A438C
:100C20005A6238B104280CD11A46526A42F00402C2
:100C30005A6207E0904A526A22F004028E4B5A62CE
:100C400000E000BF00BF704738B5002000900024CE
:100C5000002500BF6320FFF768FF05460098401C91
:100C600000900098B0F5A06F01D0002DF2D0632065
:100C7000FFF75BFF08B1012400E00024204638BDE7
:100C8000014600207C4A506A20F4FF0040EAC1304F
:100C9000506270477E490860704730B50B46144675
:100CA00000210022744D69682A6C7A4D294022F097
:100CB000030208B1012804D1194340EA04052A437C
:100CC00003E040EA0305294322436B4D69602A642F
:100CD00030BD6E490866704701460020664A50687C
:100CE00020F003000843506070476348406800F0FC
:100CF0000C007047014600205F4A506820F0F00069
:100D0000084350607047014600205B4A506820F459
:100D1000E06008435060704701460020564A506822
:100D200020F4605040EAC1005060704731B1524A2F
:100D3000926842EA0022504B9A6005E04E4A92685F
:100D400022EA00224C4B9A6070475049D831086023
:100D500041084E4AC2F8DC10704701460020464A5E
:100D6000D06A20F000500843D0627047014600204E
:100D7000414AD06A20F0F8500843D06270470246DA
:100D800000203D4BD86A20F4003020F4F8301043A6
:100D90000843D862704702460020374BD86A20F4D7
:100DA000F87009B1104302E0104320F48070324B18
:100DB000D8627047014600202F4AD06A20F00F0009
:100DC0000843D0627047024600202B4B186B20F47A
:100DD000003020F47840104308431863704730B166
:100DE0002549096B41F48021234A116305E022491A
:100DF000096B21F48021204A1163704710B5024627
:100E000000201D4B186B20F400701043186329B1AB
:100E10001B6B43F08003184C236305E0164B1B6BE0
:100E200023F08003144C236310BD1349096B21F494
:100E30008071114A11631146096B014311637047B8
:100E400029B10D4A526B02430B4B5A6304E00A4A24
:100E5000526B8243084B5A63704731B1064A526B5A
:100E600042EA0012044B5A6305E0034A526B22EA3D
:100E70000012014B5A6370470010024000C0FFF897
:100E8000FEFFF6FEFFFF00F70080BF0400004242B5
:100E900088044242FFFFC0F729B1EF4AD2690243FA
:100EA000ED4BDA6104E0EC4AD2698243EA4BDA6145
:100EB000704710B5044601210807FFF7EDFFE7482A
:100EC000006840F48070E5490860E348406B20F01A
:100ED0000700E14948630846406B2043486310BD62
:100EE000DD48406B00F007007047DB49496B21F09B
:100EF0001801D94A51631146496B01435163704748
:100F0000D548406B00F01800704729B1D24A526CA6
:100F10000243D14B5A6404E0CF4A526C8243CE4B19
:100F20005A64704729B1CC4A526C0243CA4B5A6486
:100F300004E0C94A526C8243C74B5A647047C649A1
:100F4000496C0143C44A516470470021C44A116886
:100F50006FF30801B0F5007F02DB40F2FF1001E003
:100F6000C0F308000143BE4A11607047F0B5054662
:100F70000E46002701210807FFF78EFFB7480068DB
:100F800040F48070B5490860B348046A24F00D0449
:100F900065B1012D02D0042D18D112E044F00104F6
:100FA000AD4804623046FFF7D0FF10E000BFAA480A
:100FB0000462002700E07F1C40F2FF708742FAD3F2
:100FC00005E044F00404A448046200E000BF00BF50
:100FD000F0BDA449086070479F49096A21F4407137
:100FE0009D4A11621146096A0143116270479A488D
:100FF000006A00F4407070479A49443908607047AD
:101000009549096A21F02001934A11621146096A43
:101010000143116270479048006A00F02000704759
:10102000F0B5002100BF00230026002400258A4FD0
:101030007F68DFF834C207EA0C03874F7F6807F444
:101040008036854F7F6AC7F3021503F000671FB92A
:10105000022707EB934304E04FF4F877C7EB93477D
:101060007B1C66B97C4F3F6C07F001071FB17F4FB7
:1010700003FB07F20FE07E4F03FB07F20BE0764F16
:101080007F6807F400371FB17A4F03FB07F202E0D5
:10109000764F03FB07F2704F3F6C07F0020707B172
:1010A00052086D4F7F6807F00C0131B1042909D057
:1010B00008290AD00C290DD10AE06F4F57F8257086
:1010C00007600CE06A4F076009E0684F076006E0C0
:1010D000026004E0684F57F82570076000BF00BF4A
:1010E0005D4F7F6807F0F0010909644F7C5C076879
:1010F000E7404760584F7F6807F4E061090A5F4F97
:101100007C5C4768E7408760534F7F6807F4605115
:10111000C90A5A4F7C5C4768E740C7604E4FFF6A78
:1011200007F00F01564F7C5C4768B7FBF4F7476147
:10113000494FFF6A07F4F871090901F00F07DFF85A
:1011400044C13CF81740B2FBF4F70761F0BD29B188
:10115000414A52690243404B5A6104E03E4A526997
:1011600082433D4B5A61704729B13B4A9269024321
:10117000394B9A6104E0384A92698243364B9A614E
:10118000704729B1344A926A0243334B9A6204E0B1
:10119000314A926A8243304B9A62704729B12E4A93
:1011A000D26802432C4BDA6004E02B4AD2688243B7
:1011B000294BDA60704729B1274A12690243264B4E
:1011C0001A6104E0244A12698243234B1A61704772
:1011D00024494039086070472B49C8647047214949
:1011E00074390860704700201B49096A01F010013A
:1011F00009B1012000E00020704701460020164A96
:10120000506820F07040084350607047014600204D
:10121000114A506820F0E06040EA01605060704779
:101220000D48406A40F080700B4948620846406AA9
:1012300020F080704862704701460020064A92689C
:101240000A400AB1012000E0002070470249896885
:101250000143014A91607047001002400070004055
:10126000081800408004424200003C0800127A0046
:101270000024F40000093D00DC1300089C13000862
:10128000AC130008BC1300080000424200E0401EFE
:101290000028FCD170471FB501210420FFF764FF2F
:1012A0006846FFF7F0FA4FF40070ADF80000002038
:1012B0008DF8020001208DF8030002208DF8040053
:1012C0000120029069461048FFF7EBF91FBD10B5E9
:1012D0004FF400710C48FFF700FB10BD10B54FF440
:1012E00000710948FFF7F5FA10BDFFF7D4FF09E0D8
:1012F000FFF7EDFF0548FFF7C9FFFFF7EFFF0348D2
:10130000FFF7C4FFF4E7000000080140FFFF2800DA
:10131000704700BFFEE700BFFEE700BFFEE700BF6B
:10132000FEE770477047704770470000064C074D56
:1013300006E0E06840F0010394E8070098471034A5
:10134000AC42F6D3FEF704FFF813000818140008A7
:1013500002E008C8121F08C1002AFAD1704770477E
:10136000002001E001C1121F002AFBD170470000DC
:101370000000000000000000010203040607080945
:10138000A0860100400D0300801A060000350C0005
:1013900040420F0080841E0000093D000000000054
:1013A00001020304010203040607080901020406FE
:1013B000080A0C10202020202020202001000200FC
:1013C0000400060008000A000C0010002000400085
:1013D000800000010001000100010001A086010061
:1013E000400D0300801A060000350C0040420F003B
:1013F00080841E0000093D00181400080000002031
:1014000004000000501300081C1400080400002011
:0C14100004150000601300080090D003D9
:0400000508000149A5
:00000001FF
